:1000000000000230910100007F0300008103000026
:100010008303000085030000870300000000000048
:1000200000000000000000000000000009CD0100F9
:100030008B03000000000000D1CD01000DCE0100B7
:100040009103000093030000B9B30100D5B3010090
:10005000990300009B0300009D0300009F03000024
:10006000A1030000A3030000A1A50100BDA501009C
:1000700011C0010011B60100AD030000AF03000084
:10008000B1030000B3030000B503000025A901007F
:10009000B9030000BB030000BD030000BF03000064
:1000A000C1030000C3030000C5030000C703000034
:1000B000C9030000CB030000CD030000CF03000004
:1000C000D1030000D3030000D5030000D7030000D4
:1000D000D9030000DB030000DD030000DF030000A4
:1000E000E1030000E3030000E5030000E703000074
:1000F000E9030000EB030000ED030000EF03000044
:10010000F1030000F3030000F5030000F703000013
:10011000F9030000FB030000FD030000FF030000E3
:1001200001040000030400000504000007040000AF
:10013000090400000B0400000D0400000F0400007F
:10014000110400001304000015040000170400004F
:10015000190400001B0400001D0400001F0400001F
:1001600021040000230400002504000027040000EF
:10017000290400002B0400002D0400002F040000BF
:100180003104000033040000000000000000000003
:100190004FF0000BDFF8BE020068DFF8B612096806
:1001A00001F0030100F01C00142801D14BF0020BF8
:1001B000002901D04BF0010BBBF1000F05D0A7487F
:1001C000A749DFF8722200F09FF8A64880470BF09D
:1001D000020ABAF1000F0CD0DFF86E02DFF86E12DF
:1001E00002680B680FB44FF000024FF0FF0302608B
:1001F0000B609D484FF000024FF00103022808D128
:10020000DFF83A120A60DFF83E120A60DFF83212B5
:100210000B60012808D1DFF82A120A60DFF82612E5
:100220000A60DFF81A120B609048002809D1904844
:100230009049914A00F030F890489149914A00F075
:100240002BF891489149924A00F026F8914892493A
:10025000DFF8E22100F058F8BBF1000F10D08F4812
:100260008F49DFF8D62100F04FF80BF0020ABAF1FF
:10027000000F05D00FBC02600B6000BFAFF3008021
:10028000DFF820020FF2030E00474FF000004FF09E
:100290000001DFF814F2FEE72DE9F841884225D08D
:1002A000B2EB010200D5FEE740EA010313F00303BD
:1002B00002D000F01DF819E04FF000039046121133
:1002C000F7D09A421CBFF0C8F0C103F10103F8D186
:1002D00008F00F08B8F1000F08D004780C7000F196
:1002E000010001F10101B8F10108F6D1BDE8F88182
:1002F00008B54FF0000303780B7000F1010001F125
:100300000101013AF7D108BD884237D000F0030659
:10031000002E14D04FF00405A5EB06044FF008079B
:1003200007FB06F8914669FA08F9002C07D080F817
:10033000009069FA07F900F10100013CF5E74FF080
:1003400000060F46091A88460911914614461546BB
:10035000B14206D018BFA0E8340206F10106B1424E
:10036000F8D108F00F08B8F1000F07D002704FEA7B
:10037000322200F10100B8F10108F4E77047FEE70E
:10038000FEE7FEE7FEE7FEE7FEE7FEE7FEE7FEE745
:10039000FEE7FEE7FEE7FEE7FEE7FEE7FEE7FEE735
:1003A000FEE7FEE7FEE7FEE7FEE7FEE7FEE7FEE725
:1003B000FEE7FEE7FEE7FEE7FEE7FEE7FEE7FEE715
:1003C000FEE7FEE7FEE7FEE7FEE7FEE7FEE7FEE705
:1003D000FEE7FEE7FEE7FEE7FEE7FEE7FEE7FEE7F5
:1003E000FEE7FEE7FEE7FEE7FEE7FEE7FEE7FEE7E5
:1003F000FEE7FEE7FEE7FEE7FEE7FEE7FEE7FEE7D5
:10040000FEE7FEE7FEE7FEE7FEE7FEE7FEE7FEE7C4
:10041000FEE7FEE7FEE7FEE7FEE7FEE7FEE7FEE7B4
:10042000FEE7FEE7FEE7FEE7FEE7FEE7FEE7FEE7A4
:10043000FEE7FEE7704700000000A2A2A2A2008033
:100440000340088003401080034030800340348024
:1004500003403880034018080240000000C001300B
:100460000000023029DD0100000000000000000053
:10047000000000000000000090010000B004000037
:10048000B004000010800200108002000000003064
:10049000C0000030C000003050B2003050B2003018
:1004A00000C00130C9E60100D9DF010000000000F2
:1004B00010B5054C237833B9044B13B10448AFF39E
:1004C00000800123237010BDC00000300000000038
:1004D000F07F020008B5034B1BB103490348AFF39B
:1004E000008008BD00000000C4000030F07F020062
:1004F00030B4C02A14D0B2F5807F21D0802A03D036
:100500006FF01F0030BC70470A2303640D684C680D
:100510008A68CB68056044608260C3600020F1E7B0
:100520000C2303640A684B688D68CC6802604360E2
:100530008560C4600A694B69026143610020E1E79C
:100540000E2303640D684C688A68CB6805604460BC
:100550008260C3600D694C698A69CB690561446139
:100560008261C3610020CDE730B4C02A14D0B2F557
:10057000807F21D0802A03D06FF01F0030BC7047ED
:100580000A2303640D684C688A68CB68056244627C
:100590008262C3620020F1E70C2303640A684B689F
:1005A0008D68CC68026243628562C4620A694B69E5
:1005B000026343630020E1E70E2303640D684C6887
:1005C0008A68CB68056244628262C3620D694C69C5
:1005D0008A69CB69056344638263C3630020CDE706
:1005E00012F00F0F1CD110B582B00C46194664B939
:1005F000049B0193059B00938123C2F30F122030CB
:100600001AF068FC204602B010BD049B0193059BC4
:1006100000930123C2F30F121AF05CFC0020F2E7F2
:100620006FF02100704770B40368CD1A002D4DDDC6
:100630001C7893F90060002E0DDB5C1C04601B78B5
:1006400013600368C91A13688B4294BF00206FF0CF
:100650005F0070BC704704F07F04013C032C38D865
:10066000DFE804F0020A1523012D35DD5B78136005
:10067000036802330360E4E7022D30DD5C789B7889
:1006800043EA04231360036803330360D9E7032DAF
:1006900028DD5D789C78240244EA0544DB78234316
:1006A0001360036804330360CBE7042D1DDD5D7820
:1006B0009C78240444EA05641D792C43DB7844EAE1
:1006C00003231360036805330360BAE76FF05F002C
:1006D000BFE76FF06300BCE76FF05F00B9E76FF052
:1006E0005F00B6E76FF05F00B3E76FF05F00B0E761
:1006F00038B504680D1B002D07DD25789D4207D114
:1007000001340460FFF78FFF38BD6FF05F00FBE737
:100710006FF06100F8E730B583B004461546012359
:1007200001AAFFF7E5FF58B9019B012B0AD1236805
:100730001B78003B18BF01232B6023680133236023
:1007400003B030BD6FF06300FAE730B583B0044604
:100750001546022301AAFFF7CBFFD0B9019B042B5A
:1007600019D8226892F90020002A17DB00222A609B
:100770005A1E01926BB12A6823681B7843EA022350
:100780002B60236801332360019B5A1E0192002BCA
:10079000F1D103B030BD6FF06300FAE76FF0630092
:1007A000F7E730B583B004461546022301AAFFF7E8
:1007B0009FFF08B103B030BD019A2168284600F0C0
:1007C000F1FE2368019A13442360F3E770B50546F0
:1007D0000E4614460323FFF78BFF0246A0B9236899
:1007E000A3B1013B23602B681B782371072B10D822
:1007F0002B6801332B60A36021680B442B60B3424C
:100800000CBF02466FF06502104670BD6FF05F02CC
:10081000FAE76FF06302F7E72DE9F04F83B0054682
:100820000F4616469846302301AAFFF761FF82461D
:1008300048BB2B68019A13449F4228D14FF0100BFC
:1008400006F104092B68BB4216D21B78336043467D
:100850004A4639462846FFF74BFFD8B92C68B460A2
:1008600073681C442C60BC42ECD258461DF054FF07
:10087000F06088B10646E3E70023F3602B68BB42D3
:1008800018BF6FF0650A504603B0BDE8F08F6FF0F7
:10089000650AF8E78246F6E76FF0690AF3E70000B9
:1008A000002B00F082802DE9F0411D4615441346CF
:1008B00000273E46DFF808E1C2F1010C12E093F890
:1008C0000180B8F10A0F08D01EF804407F2C6ED0CA
:1008D0003F2C01D8002F6DD101360CEB03040133FE
:1008E000AB4217D0EC1A012C02D91C780D2CE6D0A3
:1008F0001C780A2CF1D03D2C06D014F0800FE3D0E8
:100900006FF02B00BDE8F0810137022FE4D96FF0C2
:100910002B00F7E7002E50D006EB46035B000733B1
:10092000DE080D68B5EBD30F09D38446C4B3551E5A
:100930002C44002703263A46DFF884E01AE00E60D4
:100940006FF02900DEE73B0C8CF80030012E98BFD9
:100950000CF1010C22D90CF102023B0A8CF8013097
:10096000022E86BF8CF802700CF1030C9446002214
:10097000A54215D015F8013F0D2BF9D00A2BF7D061
:100980001EF80330402B08BF013E03F03F0343EA4B
:1009900087170132042AEBD1002ED4D10022E7E7D9
:1009A000ACEB000008600020ACE7002070476FF05F
:1009B0002B00A7E76FF02B00A4E70020A2E700BF01
:1009C0003802020010B4D3B2A3F13004E4B2092C0F
:1009D00009D8303A026003688B4234BF00206FF0C0
:1009E000050010BC7047A3F14104E4B2052C02D805
:1009F000373A0260EFE7FF240460613BDBB2052B6E
:100A00009CBF573A0260E6E738B3F0B58646141F3C
:100A100000231D4654F8047FF81A206051F8046B37
:100A2000B0422CBF4FF0000C4FF0010C9F422CBF86
:100A300063460CF10103801B20600135AE45E9D10E
:100A400002EB850243B1012400E023461168C81A75
:100A500042F8040B9942F8D3F0BD70472DE9F04FEE
:100A600083B0864601930F2840F2B58418461C0CCB
:100A700001F1400502F14003F4464FF0000880B256
:100A800055F8406C1FFA86F9360C09FB04FB06FB8F
:100A900000FA4FEA1A4707EB1B4706FB04774FEAB9
:100AA0000B4B09FB00B9CB4588BF013709EB0A495D
:100AB0004FEA0A4ACA4588BF013719EB08092CBF1B
:100AC0004FF001084FF0000853F8406C16EB090690
:100AD00047EB080743F8406C55F83C6C1FFA86F961
:100AE000360C09FB04FB06FB00FA4FEA1A4808EB38
:100AF0001B4806FB04884FEA0B4B09FB00B9CB45AA
:100B000088BF08F1010809EB0A494FEA0A4ACA45B9
:100B100088BF08F1010817EB09092CBF0126002640
:100B200053F83C7C17EB090748EB060843F83C7C7C
:100B300055F8386C1FFA86F9360C09FB04FB06FBE6
:100B400000FA4FEA1A4707EB1B4706FB04774FEA08
:100B50000B4B09FB00B9CB4588BF013709EB0A49AC
:100B60004FEA0A4ACA4588BF013718EB09082CBF6B
:100B70004FF001094FF0000953F8386C16EB0806E6
:100B800047EB090743F8386C55F8346C1FFA86F9BF
:100B9000360C09FB04FB06FB00FA4FEA1A4808EB87
:100BA0001B4806FB04884FEA0B4B09FB00B9CB45F9
:100BB00088BF08F1010809EB0A494FEA0A4ACA4509
:100BC00088BF08F1010817EB09092CBF0126002690
:100BD00053F8347C17EB090748EB060843F8347CDC
:100BE00055F8306C1FFA86F9360C09FB04FB06FB3E
:100BF00000FA4FEA1A4707EB1B4706FB04774FEA58
:100C00000B4B09FB00B9CB4588BF013709EB0A49FB
:100C10004FEA0A4ACA4588BF013718EB09082CBFBA
:100C20004FF001094FF0000953F8306C16EB08063D
:100C300047EB090743F8306C55F82C6C1FFA86F91E
:100C4000360C09FB04FB06FB00FA4FEA1A4808EBD6
:100C50001B4806FB04884FEA0B4B09FB00B9CB4548
:100C600088BF08F1010809EB0A494FEA0A4ACA4558
:100C700088BF08F1010817EB09092CBF01260026DF
:100C800053F82C7C17EB090748EB060843F82C7C3B
:100C900055F8286C1FFA86F9360C09FB04FB06FB95
:100CA00000FA4FEA1A4707EB1B4706FB04774FEAA7
:100CB0000B4B09FB00B9CB4588BF013709EB0A494B
:100CC0004FEA0A4ACA4588BF013718EB09082CBF0A
:100CD0004FF001094FF0000953F8286C16EB080695
:100CE00047EB090743F8286C55F8246C1FFA86F97E
:100CF000360C09FB04FB06FB00FA4FEA1A4808EB26
:100D00001B4806FB04884FEA0B4B09FB00B9CB4597
:100D100088BF08F1010809EB0A494FEA0A4ACA45A7
:100D200088BF08F1010817EB09092CBF012600262E
:100D300053F8247C17EB090748EB060843F8247C9A
:100D400055F8206C1FFA86F9360C09FB04FB06FBEC
:100D500000FA4FEA1A4707EB1B4706FB04774FEAF6
:100D60000B4B09FB00B9CB4588BF013709EB0A499A
:100D70004FEA0A4ACA4588BF013718EB09082CBF59
:100D80004FF001094FF0000953F8206C16EB0806EC
:100D900047EB090743F8206C55F81C6C1FFA86F9DD
:100DA000360C09FB04FB06FB00FA4FEA1A4808EB75
:100DB0001B4806FB04884FEA0B4B09FB00B9CB45E7
:100DC00088BF08F1010809EB0A494FEA0A4ACA45F7
:100DD00088BF08F1010817EB09092CBF012600267E
:100DE00053F81C7C17EB090748EB060843F81C7CFA
:100DF00055F8186C1FFA86F9360C09FB04FB06FB44
:100E000000FA4FEA1A4707EB1B4706FB04774FEA45
:100E10000B4B09FB00B9CB4588BF013709EB0A49E9
:100E20004FEA0A4ACA4588BF013718EB09082CBFA8
:100E30004FF001094FF0000953F8186C16EB080643
:100E400047EB090743F8186C55F8146C1FFA86F93C
:100E5000360C09FB04FB06FB00FA4FEA1A4808EBC4
:100E60001B4806FB04884FEA0B4B09FB00B9CB4536
:100E700088BF08F1010809EB0A494FEA0A4ACA4546
:100E800088BF08F1010817EB09092CBF01260026CD
:100E900053F8147C17EB090748EB060843F8147C59
:100EA00055F8106C1FFA86F9360C09FB04FB06FB9B
:100EB00000FA4FEA1A4707EB1B4706FB04774FEA95
:100EC0000B4B09FB00B9CB4588BF013709EB0A4939
:100ED0004FEA0A4ACA4588BF013718EB09082CBFF8
:100EE0004FF001094FF0000953F8106C16EB08069B
:100EF00047EB090743F8106C55F80C6C1FFA86F99C
:100F0000360C09FB04FB06FB00FA4FEA1A4808EB13
:100F10001B4806FB04884FEA0B4B09FB00B9CB4585
:100F200088BF08F1010809EB0A494FEA0A4ACA4595
:100F300088BF08F1010817EB09092CBF012600261C
:100F400053F80C7C17EB090748EB060843F80C7CB8
:100F500055F8086C1FFA86F9360C09FB04FB06FBF2
:100F600000FA4FEA1A4707EB1B4706FB04774FEAE4
:100F70000B4B09FB00B9CB4588BF013709EB0A4988
:100F80004FEA0A4ACA4588BF013718EB09082CBF47
:100F90004FF001094FF0000953F8086C16EB0806F2
:100FA00047EB090743F8086C55F8046C1FFA86FAFA
:100FB000360C0AFB04F806FB00FB4FEA1B4909EB61
:100FC000184906FB04994FEA08460AFB006A564591
:100FD00088BF09F101090AEB0B4A4FEA0B4BD345D5
:100FE00088BF09F1010917EB0A0A2CBF4FF001086D
:100FF0004FF0000853F8047C17EB0A0749EB080888
:1010000043F8047CACF1100C40354033BCF10F0FB9
:101010003FF636ADAEF110031B09013301EB83112E
:1010200002EB83120EF00F0EBEF1070F40F29B8110
:101030000198040C01F1200602F12003F44680B26D
:1010400056F8205C1FFA85F94FEA154A09FB04F5AA
:101050000AFB00FB4FEA1B4707EB15470AFB047727
:101060004FEA054A09FB00A9CA4594BFBA4607F1F1
:10107000010A09EB0B494FEA0B474F4594BF57460E
:101080000AF1010719EB08092CBF4FF001084FF0D6
:10109000000853F8205C15EB090547EB080743F8F7
:1010A000205C56F81C5C1FFA85F94FEA154A09FBCB
:1010B00004F50AFB00FB4FEA1B4808EB15480AFB46
:1010C00004884FEA054A09FB00A9CA4594BFC246F5
:1010D00008F1010A09EB0B494FEA0B48C84594BFD8
:1010E000D0460AF1010817EB09072CBF4FF00109A0
:1010F0004FF0000953F81C5CEF1948EB090843F85E
:101100001C7C56F8185C1FFA85F94FEA154A09FB52
:1011100004F50AFB00FB4FEA1B4707EB15470AFBE8
:1011200004774FEA054A09FB00A9CA4594BFBA46AD
:1011300007F1010A09EB0B494FEA0B474F4594BFF2
:1011400057460AF1010718EB09082CBF4FF00109B7
:101150004FF0000953F8185C15EB080547EB090739
:1011600043F8185C56F8145C1FFA85F94FEA154AE3
:1011700009FB04F50AFB00FB4FEA1B4808EB154886
:101180000AFB04884FEA054A09FB00A9CA4594BF37
:10119000C24608F1010A09EB0B494FEA0B48C84562
:1011A00094BFD0460AF1010817EB09072CBF4FF096
:1011B00001094FF0000953F8145CEF1948EB0908D6
:1011C00043F8147C56F8105C1FFA85F94FEA154A6B
:1011D00009FB04F50AFB00FB4FEA1B4707EB154729
:1011E0000AFB04774FEA054A09FB00A9CA4594BFE8
:1011F000BA4607F1010A09EB0B494FEA0B474F4585
:1012000094BF57460AF1010718EB09082CBF4FF0AD
:1012100001094FF0000953F8105C15EB080547EB86
:10122000090743F8105C56F80C5C1FFA85F94FEA81
:10123000154A09FB04F50AFB00FB4FEA1B4808EBC3
:1012400015480AFB04884FEA054A09FB00A9CA456C
:1012500094BFC24608F1010A09EB0B494FEA0B485B
:10126000C84594BFD0460AF1010817EB09072CBF07
:101270004FF001094FF0000953F80C5CEF1948EBEF
:10128000090843F80C7C56F8085C1FFA85F94FEA08
:10129000154A09FB04F50AFB00FB4FEA1B4707EB65
:1012A00015470AFB04774FEA054A09FB00A9CA451E
:1012B00094BFBA4607F1010A09EB0B494FEA0B4705
:1012C0004F4594BF57460AF1010718EB09082CBF98
:1012D0004FF001094FF0000953F8085C15EB0805C1
:1012E00047EB090743F8085C56F8045C1FFA85FAD7
:1012F0002D0C0AFB04FB05FB00F84FEA184909EB2B
:101300001B4905FB04994FEA0B4B0AFB00BAD34576
:1013100088BF09F101090AEB084A4FEA0848D0459D
:1013200088BF09F1010917EB0A072CBF4FF001082C
:101330004FF0000853F8045CEF1949EB080843F834
:10134000047CACF1080C20362033BCF1070F3FF6CB
:1013500077AEAEF10803DB08013301EB431102EB7A
:1013600043120EF0070EBEF1000F32D0019B4FEA80
:10137000134C4FEA8E0901EB8E0E16469BB251F8C4
:10138000044BA0B2240C00FB0CF704FB03F54FEA5E
:10139000154A0AEB174A04FB0CA43F0400FB037038
:1013A000874288BF013400EB05402D04854288BF89
:1013B000013410EB08002CBF4FF001084FF000087B
:1013C00035682D1844EB080846F8045B7145D6D102
:1013D0004A44012103E04FF0000825E688461368DF
:1013E000434442F8043B4345F8D303B0BDE8F08FD3
:1013F00020B101220260002242608260704788B101
:1014000010B50446806838B16268920000211DF072
:10141000C9F9A0681DF088F90123236000236360E7
:10142000A36010BD704742F2107399422BD82DE98A
:10143000F04106460C4645688D4202D30020BDE8C7
:10144000F0814FEA810840461DF066F90746E8B191
:10145000424600211DF0A6F9D6F80880B8F1000F29
:101460000DD0AD002A46414638461DF073F92A4694
:10147000002140461DF096F9B0681DF055F97460E2
:10148000B7600020DBE76FF00F0070476FF00F00D0
:10149000D5E7F8B5884223D005460E4649684B1E6D
:1014A00007D0B26802EB810252F8044D0CB9013B3F
:1014B000FAD15C1C33682B6021462846FFF7B3FF46
:1014C000074608B13846F8BD6A6892000021A8684E
:1014D0001DF068F9A200B168A8681DF03BF9F1E7BA
:1014E0000027EFE770B504460D460121FFF79BFF8B
:1014F000064608B1304670BD626892000021A068BF
:101500001DF050F9A36885EAE572A2EBE5721A6056
:10151000002DB4BF4FF0FF3301232360EAE770B41E
:101520004568C5B18468043C0020064654F8041F91
:1015300011F0010F10D10130012221FA02F313F052
:10154000010309D101320130202AF6D10136AE4221
:10155000ECD1184600E0284670BC704710B44168D2
:101560004A1E07D0836803EB810353F8041D09B9B1
:10157000013AFAD1836853F8224020231846013BF0
:1015800024FA03F111F0010F02D1002BF6D1184615
:1015900000EB421010BC704708B5FFF7DFFF0730C3
:1015A000C00808BDF8B506460F4615468AB14B1E61
:1015B000002413F8012F12B90134A542F9D1E91C16
:1015C000091B89083046FFF72EFF844618B1604694
:1015D000F8BD1446F3E700213046FFF783FF844649
:1015E0000028F4D1A542F2D92F442C1B002323F06C
:1015F0000305B06817F8012DD90001F0180102FAAF
:1016000001F142590A4342510133A342EFD1DEE7CF
:10161000F8B507460C461546FFF7BEFFA84217D897
:1016200006462A46002120461DF0BCF89EB16219EC
:10163000002323F00301B868DC0004F018054458C7
:10164000EC4002F8014D01339E42F2D10020F8BD7A
:101650006FF00700FBE70020F9E7F8B505460F46F5
:101660004C0901F01F06FFF779FF38446B68B0EBB7
:10167000431F3AD81F2F1CD96B689C420FD203F12D
:101680008042013A9200C4EB8477BF00A9688818B1
:10169000C0598850013B043A9C42F7D1234643B1DC
:1016A000013B0021AA6842F82310013BB3F1FF3F40
:1016B000F8D116B36B689C4221D20021C6F12007F5
:1016C000AA6852F82430084623FA07F1B34042F8DA
:1016D0002430AA6852F82430034342F824300134FD
:1016E0006B68A342ECD8002008E01F30410928466F
:1016F000FFF799FE0028BDD000E00020F8BD0020D3
:10170000FCE7F8B54368B3EB511F3ED34E0901F037
:101710001F04B34234D01F2916D9B10000238268B8
:10172000555842F82350013304314268921B9A42C3
:10173000F5D842689A4207D90021826842F82310FE
:10174000013342689A42F8D82CB343682BB3013B6B
:101750000025C4F12007816851F823202E4602FAA3
:1017600007F5E24041F82320816851F823203243F5
:1017700041F82320013BB3F1FF3FECD10020F8BD3D
:101780001CB91F2905D80020F9E70021FFF7AAFEA0
:10179000F5E72346CDE70020F1E70020EFE730B47E
:1017A00043683BB1826802EB830252F8044D8CB966
:1017B000013BFAD14A680023C2B38C6804EB82046F
:1017C00054F8045D55B9013AFAD16BB35BB101200D
:1017D00030BC70474A68002AEFD1F6E7A3B9BAB126
:1017E000934217D3CBB1846804EB8304886800EB81
:1017F000830054F8041D50F8042D91420FD810D3E3
:10180000013BF6D10020E3E79342E9D90120DFE76D
:101810000020DDE74FF0FF30DAE70020D8E70120B5
:10182000D6E74FF0FF30D3E70020D1E70020CFE725
:101830002DE9F04F87B082468B4614460192039300
:10184000109B5A689200002198681CF0ABFF109B17
:1018500099680491D4F80480DBF80430434528BF2C
:1018600043460293B8F1000F2ED00D4608F101094E
:101870004FEA8903059301EB89090026DAF808305D
:1018800053F82670DBF808100C682B6804FB07344B
:10189000039B03FB04F43B462A460298FFF7DEF85D
:1018A00023462A46019989684046FFF7D7F845F84C
:1018B000047B002349F8043F0136B045DED1059B87
:1018C000043B049A1A44049208F10102920004991C
:1018D000DAF808001CF03EFF019C21465046FFF755
:1018E0005EFF002808DBDAF80820A1684046FFF711
:1018F0008BF807B0BDE8F08F109B9A68DAF80810F3
:101900004046FFF781F8F4E770B4064643683BB100
:10191000826802EB830252F8044D9CB9013BFAD174
:101920004A680023002A45D08C6804EB820454F8EE
:10193000045D5DB9013AFAD1002B39D053B130685A
:1019400070BC70474A68002AEED1F5E7D3B95AB3A4
:1019500093421AD3306800281ADD0A68002A25DB72
:10196000F3B1B56805EB83058C6804EB830455F887
:10197000041D54F8042D9142E2D813D3013BF6D153
:101980000020DDE79342DAD8E2E708684042D7E773
:101990000A68002AE4DD0028E2DA4FF0FF30CFE7E2
:1019A0000020CDE74042CBE70020C9E70120C7E790
:1019B0000020C5E70020C3E700B585B081EAE173E8
:1019C000A3EBE17300930029B4BF4FF0FF33012371
:1019D000019301230293CDF80CD001A9FFF794FFE6
:1019E00005B05DF804FB2DE9F041064690423ED07B
:1019F0001546884204D0FFF74CFD074600284DD11C
:101A0000012333606C683CB1AB6803EB840353F88B
:101A1000041D09B9013CFAD121463046FFF703FD08
:101A2000074600283AD1D5F808C0B268002C35D056
:101A3000101F0025AE4650F8041F29440160DCF851
:101A400000300B4403605CF8048B43452CBF00233B
:101A50000123A9422CBF1D465D1C0EF1010EA645B7
:101A6000E9D102EB8402CDB14FF0010809E00D4647
:101A7000C6E713682B4442F8043B0134AB420DD255
:101A800045467368A342F4D8611C3046FFF7CBFC8F
:101A900018B9B26802EB8402EBE707463846BDE8A6
:101AA000F081F0B585B005460E4614461146304625
:101AB000FFF775FE00282EDB01230193002302931C
:101AC0000393AC421ED0AE4205D031462846FFF704
:101AD000E0FC074680B901232B60606838B1A36839
:101AE00003EB800353F8041D09B90138FAD1AA6841
:101AF000A168FEF789FF002701A8FFF780FC3846A0
:101B000005B0F0BD214601A8FFF7C3FC0746002839
:101B1000F2D101ACD7E76FF00907F0E7F8B5064658
:101B20000C4615460F68136803FB07F3002B16DA03
:101B300011462046FFF733FE002807DB2A462146E0
:101B40003046FFF7AEFF70B937600CE022462946F9
:101B50003046FFF7A6FF30B97F42376003E0FFF75A
:101B600042FF00B93760F8BDF8B506460C46154689
:101B70000F68136803FB07F3002B17DD114620469F
:101B8000FFF70DFE002807DB2A4621463046FFF707
:101B900088FF00B93760F8BD224629463046FFF776
:101BA00080FF0028F7D17F423760F4E7FFF71BFF83
:101BB0000028F0D13760EEE700B585B082EAE27325
:101BC000A3EBE2730093002AB4BF4FF0FF3301236D
:101BD000019301230293CDF80CD001AAFFF79EFFD9
:101BE00005B05DF804FB00B585B082EAE273A3EBB3
:101BF000E2730093002AB4BF4FF0FF330123019337
:101C000001230293CDF80CD001AAFFF7ADFF05B078
:101C10005DF804FB2DE9F04387B006460F46904679
:101C200001220392002304930593009201930293EF
:101C3000884227D046452DD07D683DB1BB6803EB77
:101C4000850353F8042D0AB9013DFAD1D8F80440B0
:101C500044B1D8F8083003EB840353F8042D0AB9D3
:101C6000013CFAD129193046FFF7DDFB8146D0B19E
:101C70006846FFF7C4FB03A8FFF7C1FB484607B05F
:101C8000BDE8F08303A8FFF704FC81460028EFD1EC
:101C900003AFCFE741466846FFF7FBFB81460028CC
:101CA000E6D1E846C8E700213046FFF71BFC814635
:101CB0000028DDD17CB1013CD8F80830B26853F877
:101CC000243002EB8402B9682846FEF7C7FE013CC7
:101CD000B4F1FF3FF0D13A68D8F8003003FB02F3CB
:101CE0003360C5E700B585B0012301930293CDF8B9
:101CF0000CD0009201AAFFF78DFF05B05DF804FB40
:101D00002DE9F04784B08B1E0E2B00F28D80054626
:101D10000F4690460123009300230193029310463F
:101D20001DF095FA0646102F0AD000212846FFF72D
:101D3000D9FB814660B95EB100244FF0FF3A57E00D
:101D400081001F3149092846FFF76DFB814630B1FC
:101D50006846FFF754FB484604B0BDE8F087002111
:101D60002846FFF7BFFB8246002853D1002E53D0F0
:101D7000002419E0013E18F90620394603A8FEF7B1
:101D800021FE81460028E3D1E008A968A20002F004
:101D90001C02039B03FA02F251F82030134341F86E
:101DA00020300134002ED3D0012EE3D198F9003039
:101DB0002D2BDFD14FF0FF332B60D146C8E718F948
:101DC0000420394603A8FEF7FDFD38BB3A462946F4
:101DD0006846FFF787FF18BB2B68012B11D0039AC9
:101DE00069462846FFF7FFFEE0B90134A642AFD0AE
:101DF000002CE4D198F900302D2BE0D1C5F800A0DB
:101E0000F3E7039A69462846FFF7D6FE0028ECD090
:101E100081469DE781469BE7814699E7814697E7A2
:101E2000814695E7814693E76FF0030993E72DE933
:101E3000F04F99B006468A4615461C4600211846C2
:101E4000FFF7BAFD002800F0EB8101221592002374
:101E5000169317931292139314930F921093119356
:101E60000C920D930E9309920A930B9321462846E8
:101E7000FFF795FC002811DA2EB100213046FFF75C
:101E800031FB074680B9BAF1000F00F0CC8129463A
:101E90005046FFF7FEFA074630B914E0294615A868
:101EA000FFF7F7FA074690B115A8FFF7A8FA12A8AE
:101EB000FFF7A5FA0FA8FFF7A2FA0CA8FFF79FFA01
:101EC00009A8FFF79CFA384619B0BDE8F08F214603
:101ED00012A8FFF7DEFA07460028E5D10123129386
:101EE0001593696802310FA8FFF79DFA074600288D
:101EF000DAD100210FA8FFF7F5FA07460028D3D161
:101F000002210CA8FFF78FFA07460028CCD1032145
:101F100009A8FFF788FA07460028C5D112A8FFF7DD
:101F20001DFB00F01F031E2B11D8C3F11F030293EA
:101F30009846194615A8FFF790FB07460028B3D12D
:101F4000414612A8FFF789FB074610B1ACE7002312
:101F50000293DDF85890DDF84CB0A9EB0B084FEA7E
:101F600048130093194612A8FFF777FB074600288D
:101F70009AD14FEA88080AE0119A52F808300133E2
:101F800042F8083012AA15A90846FFF7EDFD12A97C
:101F900015A8FFF7B9FC0028EEDA09F1FF3101912D
:101FA0000BF1FF320392009912A8FFF7AAFB0199E7
:101FB000039A914240F2E78090000BF18043023B8C
:101FC0009B00009309F18043013BA3EB0B034FEA15
:101FD000830B09F18049A9F102094FEA89030192B3
:101FE00090469946039707460496CDF814A00695A7
:101FF0000D460794179B09F1040653F806C0149A7E
:10200000D259944511D3119B4FF0FF3243F80B2066
:10201000119A52F80B30013342F80B30A9F1040A3F
:10202000002433464646984668E090B2140CBCFB48
:10203000F4F104FB11CC53F809E04FEA1E4343EAE4
:102040000C4301FB00FC634513D3A3EB0C0CBCFB5E
:10205000F4F304FB13CC1FFA8EF444EA0C4403FBA4
:1020600000F0844210D343EA0143119A42F80B3046
:10207000CEE701399B18E8D29C45E6D901399B1877
:10208000E3D29C45FAD8E0E7013B1419EBD2A04219
:10209000E9D9013BA418E6D2A042FAD8E3E7019AB5
:1020A0000E9B1A60149BDA590E9B5A60119B53F8D1
:1020B0000B200CA90846FFF715FE002840F0A08071
:1020C000214609A8FFF70EFA002840F09B80012D59
:1020D00026D9179B53F80A200B9B1A60179B53F8BD
:1020E00009200B9B5A60179B53F808200B9B9A60A2
:1020F00009A90CA8FFF708FC002817DD119A52F86F
:102100000B30013B42F80B3021460CA8FFF7EAF9EF
:10211000002873D1002EC2D0149B009A9A58BFE7B2
:102120000B9B1C602A46002DDBD0D7E7B046119BE5
:1021300053F80B2012A90CA8FFF7D4FD002863D197
:102140004FEACB0421460CA8FFF787FA00285DD19F
:102150000CAA15A90846FFF707FD002858D1002151
:1021600015A8FFF729FC002831DB013DABF1040B7A
:10217000A9F10409A845FFF43DAF039F049EDDF8D3
:1021800014A0069D079C46B10FA93046FFF781F9C0
:102190002A68236803FB02F33360BAF1000F3FF4AF
:1021A00083AE029915A8FFF7ACFA2B68159315A911
:1021B0005046FFF76EF900215046FFF7FDFB00285F
:1021C0007FF472AE0122CAF8002007466CE612A91D
:1021D0000CA8FFF75EF9E8B921460CA8FFF73DFA15
:1021E000D0B90CAA15A90846FFF798FCB0B9119A06
:1021F00052F80B30013B42F80B30B6E7074653E686
:10220000074651E607464FE607464DE607464BE6CA
:10221000074649E6074647E6074645E6074643E6DA
:102220006FF00B074FE600274DE6F8B504460E4663
:10223000154600211046FFF7BFFB002827DB2B4681
:10224000324621460020FFF7F2FD074670B900260E
:1022500031462046FFF7B0FB002809DA2A4621461E
:102260002046FFF75BFC0028F2D007463846F8BD51
:1022700029462046FFF748FB0028F7DB2A4621467F
:102280002046FFF771FC0028F2D00746EEE76FF01A
:102290000907EBE72DE9F04FADF25C6D06468A4683
:1022A00015461C4600211846FFF786FB0028C0F2A1
:1022B000FB81A368D3F8008018F0010B00F0F881CF
:1022C00000212846FFF778FB0028C0F2F5810123A2
:1022D000CDF84C360021CDF85016CDF85416CDF877
:1022E0004036CDF84416CDF848164FF4C06210A819
:1022F0001CF058FA2846FFF731F9B0F5287F80F036
:10230000DF81EF2800F20E824F2800F20E8217289C
:1023100094BFD9464FF00309D4E1394613A8FFF71B
:1023200082F8029050B109F1FF34012303FA04F45A
:1023300003FA09F9A14500F2D681E0E179000DF533
:10234000C860FFF770F802900028ECD1DAF800209E
:10235000069201230D9300230E930F93B2F1FF3FDA
:1023600061D0DDF88036002B6AD09B68002B67D0E7
:102370000DF24C63DDF8802610685168926807C33F
:1023800021465046FFF7C0FA0028C0F2848022465A
:10239000514613A8FFF749FF08F102035B0003F061
:1023A0000803434403FB08F2C2F1020202FB03F2FA
:1023B00002FB08F3C3F1020303FB02F303FB08F281
:1023C000023A02FB03F31F4605930DF5C863009321
:1023D0003B4622460DF24C6113A8FFF729FA0DF295
:1023E0004C613046FFF755F8029000289BD109AAAE
:1023F000012309930A930B930C920DF5C863009384
:102400003B4622460AA93046FFF712FAB9F1010FFE
:1024100046D8D5F804804FF0000ACDF810A05746F2
:10242000CDF80CA0B7E051460DA8FFF732F80290A6
:1024300000287FF478AF01230D930DF1340A90E763
:1024400001210DF24C60FFF74DF8029000287FF457
:102450006AAF616889010DF24C60FFF7FEF80290E7
:1024600000287FF460AF22460DF24C610846FFF76A
:10247000DCFE029000287FF456AFDDF88036002B9A
:102480003FF47EAF0DF24C6307CBDDF88036186069
:1024900059609A6074E7514613A8FEF7FAFF7BE78C
:1024A00009F1FF3A012303FA0AF304930C2303FA18
:1024B0000AF3039310AA02EB030861680131404656
:1024C000FEF7B1FF08B102902DE713A94046FEF7D1
:1024D000E0FF002840F0DD8000270DF5C863009381
:1024E000059B224641464046FFF7A2F90137BA450F
:1024F000F3D1012202FA09F2049B01339A4288D9EE
:10250000039F0C3710AB1F444FF00C0A0AFA09FA6C
:102510009A440DF5C8680395616801313846FEF7A5
:1025200082FF002840F0B780A7F10C013846FEF783
:10253000B0FF002840F0B180CDF80080059B224616
:1025400013A93846FFF774F90C375745E4D1039DBA
:102550005FE7049B002B00F08180012707FA09F751
:102560000DF5C865CDF81C90DDF80C90DDF810B0C5
:10257000DDF814A05CE0BAF1010F20D0049A01321A
:10258000A9EB02018B40039919430391914520D097
:1025900004924FF0020A37B908F1FF33B8F1000F87
:1025A000D7D098462027013FAB6853F82830FB402E
:1025B00013F00103E2D1BAF1000FDCD1EBE70DF526
:1025C000C8630093059B224631463046FFF730F939
:1025D000E1E74FF0000ACDF81C90DDF8109004956B
:1025E000059D0DF5C86300932B46224631463046C3
:1025F000FFF71EF9D1450AF1010AF2D1DDF81C906E
:10260000049D039B03EB43010DF5C8630093059BF9
:10261000224610A800EB81013046FFF709F9DA469F
:10262000002303930493B6E708F10108C34513D0D0
:1026300000955346224631463046FFF7F9F84FEAF7
:10264000490917EA090FEFD000955346224613A90E
:102650003046FFF7EDF8E7E7DDF81C9009AA012303
:1026600009930A930B930C920DF5C8630093059B95
:1026700022460AA93046FFF7DBF8069BB3F1FF3F7D
:102680007FF451AE3360324621463046FFF746FABA
:1026900049E6029047E6029045E6029043E60DF2D5
:1026A0004C60FEF7ACFE38E06FF00303029334E0B9
:1026B0006FF00303029330E06FF0030302932CE00A
:1026C0004FF006096768013739463046FEF7ABFE22
:1026D000029000283FF421AE09F1FF34012303FAF0
:1026E00004F403FA09F904EB440510AB03EB850588
:1026F0002846FEF784FE01340C35A145F8D813A80E
:10270000FEF77DFE0DF5C860FEF779FE0DA8FEF719
:1027100076FEDDF88036002BC1D002980DF25C6D9C
:10272000BDE8F08F4FF00509CCE74FF00409C9E789
:10273000F0B58BB006461546012407940023089394
:10274000099304940593069301940293039304A8B8
:10275000FEF79FFE044658B107A8FEF750FE04A8F6
:10276000FEF74DFE01A8FEF74AFE20460BB0F0BD75
:10277000294601A8FEF78DFE04460028ECD104A8E6
:10278000FEF7CDFE054601A8FEF7C9FE854228BF2B
:102790000546294604A8FEF7B4FF04460028DBD10D
:1027A000294601A8FEF7ADFF04460028D4D1012335
:1027B0000193049300270EE004AA01A90846FFF73D
:1027C00070F904460028C7D1012101A8FEF799FF3E
:1027D00004460028C0D1394604A8FFF7EDF848B3F5
:1027E00004A8FEF79CFE014604A8FEF78AFF0446F3
:1027F0000028B1D101A8FEF792FE014601A8FEF71C
:1028000080FF04460028A7D101A904A8FFF77CF89F
:102810000028D1DB01AA04A90846FFF742F90446C3
:10282000002899D1012104A8FEF76BFF0446002877
:10283000D1D091E7294601A8FEF70FFF04460028F2
:102840008AD101A93046FEF724FE044684E72DE92B
:10285000F04704460E461746984603318908FEF7AE
:10286000E2FD824610B15046BDE8F08700212046C7
:10287000FEF738FE82460028F5D1D4F80890636848
:102880009B00F0D005463246A1684046B84709F89B
:10289000010B01356368B5EB830FF4D3E3E7F0B5C3
:1028A0009DB007460E46154600211046FFF784F8F6
:1028B000002840F35B81012416940023179318939A
:1028C0001394149315931094119312930D940E93E3
:1028D0000F9319941A931B930A940B930C930794D8
:1028E0000893099304940593069301940293039328
:1028F0002A46314619A8FFF71BFF044630B90121CB
:1029000019A8FFF759F8F8B16FF00D0416A8FEF7F3
:1029100076FD13A8FEF773FD10A8FEF770FD0DA855
:10292000FEF76DFD19A8FEF76AFD0AA8FEF767FD20
:1029300007A8FEF764FD04A8FEF761FD01A8FEF7F5
:102940005EFD20461DB0F0BD2A46314616A8FFF7B1
:102950006CFC04460028D9D116A913A8FEF799FDEE
:1029600004460028D2D129460AA8FEF792FD044663
:102970000028CBD1294607A8FEF78BFD0446002886
:10298000C4D1012110A8FEF7ADFD04460028BDD139
:1029900000210DA8FEF7A6FD04460028B6D10021AF
:1029A00004A8FEF79FFD04460028AFD1012101A82D
:1029B000FEF798FD0446F0B1A8E70AAA10A9084658
:1029C000FFF7ACF804460028A0D116AA0DA90846C6
:1029D000FFF7CAF80446002898D1012110A8FEF795
:1029E00090FE0446002891D101210DA8FEF789FE32
:1029F000044600288AD1159B1B6813F0010F12D1E1
:102A0000012113A8FEF77DFE044600287FF47EAF67
:102A1000129B1B6813F0010FCFD10F9B1B6813F0A3
:102A2000010FDAD0C9E7012621E00AAA04A9084665
:102A3000FFF774F8044600287FF468AF16AA01A9CE
:102A40000846FFF791F8044600287FF45FAF31464F
:102A500004A8FEF756FE044600287FF457AF31461F
:102A600001A8FEF74EFE044600287FF44FAF099BF5
:102A70001B6813F0010F12D1314607A8FEF741FE83
:102A8000044600287FF442AF069B1B6813F0010F39
:102A9000CBD1039B1B6813F0010FD8D0C5E707A962
:102AA00013A8FEF731FF002830DB07AA13A9084658
:102AB000FFF75AF8044600287FF428AF04AA10A9AB
:102AC0000846FFF751F8044600287FF41FAF01AA1B
:102AD0000DA90846FFF748F8044600287FF416AF12
:102AE000002113A8FEF768FF002884D10026314694
:102AF00004A8FEF761FF002823DA2A4604A9084645
:102B0000FFF70CF804460028F1D0FFE613AA07A946
:102B10000846FFF729F8044600287FF4F7AE10AA0C
:102B200004A90846FFF720F8044600287FF4EEAE1B
:102B30000DAA01A90846FFF717F804460028CFD0D0
:102B4000E4E6294604A8FEF7DFFE002808DB2A4653
:102B500004A90846FFF708F804460028F1D0D5E696
:102B600004A93846FEF795FC0446CFE66FF003044F
:102B7000E7E6000030B587B004460D4603A8FEF72F
:102B800037FC6846FEF734FC022103A8FEF7AAFCD6
:102B9000022229466846FFF726F803A92046FEF7D9
:102BA000B3FE002810DB69462046FEF7ADFE002884
:102BB000064CD8BF002403A8FEF721FC6846FEF7A8
:102BC0001EFC204607B030BD004CF4E780CFFFFF6D
:102BD0002DE9F04F85B08346884602920393DDF8D5
:102BE0003890DDF83CA0051D00212846FEF7E4FEE4
:102BF000002876D00C270BF11C04012610E031468A
:102C00002046FEF77EFD29462046FEF77DFE002881
:102C1000F5DA013F67D029462046FFF7ABFF30B118
:102C200053464A4641462046FFF711FEEBE70BF1BB
:102C300028060BF110070BF14C0300932B4622469C
:102C400039463046FFF726FB10B1A0F546504BE061
:102C500029463046FFF78EFF002845D12846FEF76B
:102C60009BFC04463846FEF797FC80463046FEF74C
:102C700093FC81462246029B991C2846FEF7C8FC1D
:102C80000028E2D1230A029A154605F8023B547047
:102C900005EB040A42460AF102013846FEF7B8FC89
:102CA0000028D2D14FEA18232B550AF102058AF8E1
:102CB000018005EB08074A46B91C3046FEF7A8FC20
:102CC0000028C2D14FEA192305F80830BB1C87F849
:102CD00001904B44029A9B1A039A1360CBF8004070
:102CE00002E0034800E0034805B0BDE8F08F00BFF4
:102CF00080CFFFFF80CEFFFF70B108B503466AB1F9
:102D0000006890420CD303F13400FEF74BFC00B98D
:102D100008BDA0F54850FBE7024870470148F7E7B7
:102D20000048F5E780CFFFFF98B32DE9E04382B07C
:102D30000E46154602462968036899422CD300F1D5
:102D4000400700F1340800F1040900F14C0300933E
:102D50004B461C3241463846FFF79CFA034610B1F9
:102D6000A3F54C5311E049464046FFF703FF0346E5
:102D700058B93846FEF710FC0246286031463846FE
:102D8000FEF746FC03460028EAD1184602B0BDE82B
:102D9000E083024B18467047004BF6E780CFFFFFF9
:102DA00010B504464C30FEF72AFB04F14000FEF754
:102DB00026FB04F13400FEF722FB04F12800FEF7A5
:102DC0001EFB04F11C00FEF71AFB04F11000FEF7D5
:102DD00016FB201DFEF713FB10BD0000002303604F
:102DE0004360084B836003F18833C36003F12943D8
:102DF000A3F59613A3F68B630361A3F188334361B4
:102E0000704700BF012345672DE9F04F8DB086461E
:102E10004B788E78360446EA03260B781E43CB782F
:102E200046EA03664A798B791B0443EA02230A794E
:102E30001343CA7943EA02674A7A8B7A1B0443EA4E
:102E400002230A7A1343CA7A43EA026301934A7B54
:102E50008B7B1B0443EA02230A7B1343CA7B43EAAE
:102E6000026202924A7C8B7C1B0443EA02230A7CA6
:102E70001343CA7C43EA026003904B7D8C7D24049B
:102E800044EA03240B7D1C43CB7D44EA0364049491
:102E90004A7E8B7E1B0443EA02230A7E1343CA7ECA
:102EA00043EA026505954B7F8D7F2D0445EA032596
:102EB0000B7F1D43CB7F45EA036591F8212091F8F4
:102EC00022301B0443EA022391F82020134391F897
:102ED000232043EA0263069391F8252091F82630D7
:102EE0001B0443EA022391F82420134391F827207E
:102EF00043EA0262079291F8292091F82A301B04D4
:102F000043EA022391F82820134391F82B2043EA47
:102F10000260089091F82D2091F82E301B0443EAAE
:102F2000022391F82C20134391F82F2043EA026CDE
:102F3000CDF824C091F8319091F832301B0443EA67
:102F4000092391F8309043EA090991F8333049EAAE
:102F5000036991F8352091F836301B0443EA0223C7
:102F600091F83420134391F8372043EA026CCDF8EE
:102F700028C091F839A091F83A301B0443EA0A239B
:102F800091F838A043EA0A0A91F83B304AEA036A0A
:102F900091F83D8091F83E301B0443EA082391F8F4
:102FA0003C8043EA080891F83F3048EA0368DEF8BD
:102FB0000C00DEF810108C46DEF814108CEA0103C9
:102FC00003404B40EA4ADEF808100A4413443344F5
:102FD00000EB7363E74ADEF814100A440B973A4497
:102FE00080EA0C01194067467940114403EB3151E6
:102FF000E14A6244019C224480EA03070F404740B3
:10300000174401EBF737DD4A0244029C02EB040C43
:1030100083EA01023A405A40624407EBB222DFF8E9
:1030200078C3039CA4449C4481EA070313404B40AB
:10303000634402EB7363DFF864C3049CA4448C44D0
:1030400087EA020119407940614403EB3151DFF80E
:1030500050C3059CA444BC4482EA03070F40574078
:10306000674401EBF737DFF83CC3AC44944483EA90
:1030700001023A405A40624407EBB222DFF828C30B
:10308000069CA444634481EA070C0CEA020C8CEA17
:10309000010C634402EB7363DFF810C3079CA44484
:1030A0008C4487EA020119407940614403EB3151B5
:1030B000089CA4F5244CACF14F0CBC4482EA0307F5
:1030C0000F405740674401EBF737DFF8E4C2099C33
:1030D000A444944483EA01023A405A40624407EB14
:1030E000B222DFF8D0C2CC449C4481EA07031340EB
:1030F0004B40634402EB7363DFF8BCC20A9CA444F8
:103100008C4487EA020119407940614403EB315154
:10311000DFF8A8C2D444BC4482EA03070F405740FA
:10312000674401EBF737DFF898C2C444944483EA5C
:1031300001023A405A40624407EBB222DFF884C2EF
:103140000B9CA4449C4487EA02030B407B406344ED
:1031500002EBF363DFF870C2059CA4448C4482EA5E
:10316000030139405140614403EBF151DFF85CC287
:10317000099CA444BC4483EA010717405F406744AC
:1031800001EBB747DFF848C2B444944481EA070230
:103190001A404A40624407EB3232DFF838C2049CDE
:1031A000A4449C4487EA02030B407B40634402EB47
:1031B000F363DFF824C2089CA4448C4482EA030130
:1031C00039405140614403EBF151DFF810C2C4446F
:1031D000BC4483EA010717405F40674401EBB747EF
:1031E000DFF8FCC1039CA444944481EA07021A401E
:1031F0004A40624407EB3232DFF8E8C1079CA4443E
:103200009C4487EA02030B407B40634402EBF36378
:10321000DFF8D4C1D4448C4482EA030139405140E0
:10322000614403EBF151DFF8C4C1029CA44467443C
:1032300083EA010C0CEA020C8CEA030C674401EBF4
:10324000B747DFF8ACC1069CA444624481EA070C8E
:103250000CEA030C8CEA010C624407EB3232DFF813
:1032600094C10A9CA444634487EA020C0CEA010C52
:103270008CEA070C634402EBF363DFF87CC1019C2A
:10328000A444614482EA030C0CEA070C8CEA020CA9
:10329000614403EBF151DFF864C1AC44674483EA55
:1032A000010C0CEA020C8CEA030CBC4401EBBC4C94
:1032B00081EA0C07DFF848B1CB44934407EA0302E4
:1032C0004A405A440CEB3232049CA4F5B82BABF2C2
:1032D000BE6B5B4457403B4402EB3373284F069C64
:1032E00027440F448CEA02015940394403EB7151E1
:1032F000244F099C2744BC4482EA03074F40BC4446
:1033000001EB3C4C204F5744174483EA010282EA08
:103310000C023A440CEB72221C4F0B9C27441F44B6
:1033200081EA0C0353403B4402EB3373184F039C78
:1033300027440F448CEA02015940394403EB715190
:10334000144F2F44BC4482EA03074F40674401EB0B
:103350003747DFF8B0C0089CA444944483EA0102D4
:103360007A40624407EB7222DFF89CC00A9C4DE071
:1033700078A46AD756B7C7E8DB702024EECEBDC16B
:1033800081F6718722619D6D0C38E5FD44EABEA48B
:10339000A9CFDE4B604BBBF6AF0F7CF52AC6874743
:1033A000134630A8019546FDD8988069AFF7448B45
:1033B000BED75C892211906B937198FD8E4379A6DC
:1033C0002108B44962251EF640B340C0515A5E261A
:1033D000AAC7B6E95D102FD65314440281E6A1D8DE
:1033E000C8FBD3E7E6CDE121D60737C3870DD5F477
:1033F000ED145A4505E9E3A9F8A3EFFCD9026F677C
:103400008A4C2A8D70BCBFBEC67E9B28A4449C44B7
:1034100081EA07035340634402EB3373DFF83CC295
:10342000B444614487EA020C8CEA030C614403EB68
:103430007151DFF82CC2029CA444BC4482EA030709
:103440004F40674401EB3747DFF818C2059CA4449E
:10345000624483EA010C8CEA070C944407EB7C2C51
:103460006C4A079C2244134481EA070282EA0C0258
:103470001A440CEB3272684B4B440B4487EA0C0144
:103480005140194402EB7151644B43441F448CEA90
:1034900002034B401F4401EB3747614B019CA3469D
:1034A00023449C4482EA01037B40634407EB73237B
:1034B000DFF8B4C1B444624463EA01067E4032449A
:1034C00003EBB262574E2E44314462EA07055D4079
:1034D000294402EBB151544D55442F4461EA03068F
:1034E0005640374401EB7747504D049C25442B440C
:1034F00067EA02044C40234407EBF3234C4C4C4452
:10350000224463EA01057D402A4403EBB262494E3E
:10351000029D2E44314462EA07045C40214402EBE0
:10352000B151089EA6F58014A4F68334274461EABD
:1035300003045440274401EB77473F4D0B9C25443F
:103540002B4467EA02044C40234407EBF3233B4C33
:10355000069E3444224463EA01057D402A4403EB7D
:10356000B262374C4444214462EA07055D40294475
:1035700002EBB151334C059D2C44274461EA03050D
:1035800055402F4401EB77472F4D0A9E35441D448B
:1035900067EA02034B402B4407EBF3232B4C039EBB
:1035A0003444144463EA01027A40224403EBB262D9
:1035B000274C099E34440C4462EA070159402144D7
:1035C00002EBB151234C5C443C4461EA0307574091
:1035D000274401EB7747204C079D2C442344DEF819
:1035E00008401444CEF8084067EA02024A401A44F0
:1035F000384400EBF220CEF80C00DEF810301F4407
:10360000CEF81070DEF814301944CEF814100DB056
:10361000BDE8F08F39D0D4D9E599DBE6F87CA21F5C
:103620006556ACC497FF2A43A72394AB39A093FCFB
:10363000C3595B6592CC0C8FD15D84854F7EA86F9A
:10364000E0E62CFE144301A3A111084E827E53F73D
:1036500035F23ABDBBD2D72A91D386EBFA27A1EA3D
:103660008530EFD4051D8804442229F4002A4BD06C
:103670002DE9F84305460C461746036803F03F085A
:1036800013440360934202D2436801334360B8F1AC
:10369000000F03D0C8F14006B74215D23F2F98BFA4
:1036A000264629D9A7F1400626F03F064036264493
:1036B00021462846FFF7A8FB4034B442F8D107F072
:1036C0003F07CFB9BDE8F88305F118093246214616
:1036D00009EB08001BF03EF849462846FFF794FB2B
:1036E00034444744403F3F2F02D94FF00008D9E708
:1036F00026464FF00008E4E705F118003A46314647
:1037000040441BF027F8DDE77047000030B583B078
:1037100004460D4602684168530F43EAC103D100D5
:103720008DF80010080A8DF80100080C8DF80200D1
:10373000090E8DF803108DF80430190A8DF8051064
:10374000190C8DF806101B0E8DF8073002F03F02A1
:10375000372A94BFC2F13802C2F1780217492046D5
:10376000FFF784FF082269462046FFF77FFFA36822
:103770002B70A3681B0A6B706389AB70E37AEB70E4
:10378000E3682B71E3681B0A6B71E389AB71E37B20
:10379000EB7123692B7223691B0A6B72638AAB720C
:1037A000E37CEB7263692B7363691B0A6B73E38AB7
:1037B000AB73E37DEB7303B030BD00BF3813020081
:1037C00070B5B6B005460E4614466846FFF706FBD0
:1037D000324629466846FFF749FF21466846FFF70B
:1037E00095FF36B070BD2DE9F04184B006460D4618
:1037F0001746402A2DD800F158084022362140466D
:103800001AF0D0FF40225C2106F198001AF0CAFF9E
:10381000A7B106F15704691E06F19700234614F874
:10382000012F11F8015F6A40227010F8015F0A78D9
:1038300055400570563B9B1B9F42EFD83046FFF723
:10384000CDFA402241463046FFF710FF04B0BDE8F4
:10385000F0816A4639462846FFF7B2FF06F158085C
:103860004022362140461AF09DFF40225C2106F19D
:1038700098001AF097FF10276D46CAE708B5FFF7C2
:10388000F5FE08BD30B585B004460D466946FFF724
:103890003DFF2046FFF7A2FA402204F1980120469E
:1038A000FFF7E4FE102269462046FFF7DFFE2946B7
:1038B0002046FFF72BFF05B030BD30B5B7B014463A
:1038C0001D460A4601466846FFF78DFF2A462146F7
:1038D0006846FFF7CBFE3A996846FFF7D3FF37B04B
:1038E00030BD08B51AF0A0FC00680B2814BF0020FA
:1038F000012008BD70B58CB005460E461446012166
:103900000D201BF0E5FB00220121022016F06AF8D1
:103910002860002867DB01230B93042200920BAB85
:1039200040F6FF7116F0DEF80023049302238DF8B1
:103930000D30C4F3072242EA0424ADF80E40002EF5
:1039400037D000240794089409940A940AAB019391
:1039500009AB009308AB07AA244930461BF008FCCA
:103960000B9407AA20462346012452F8041BFF2982
:103970001BD801332046042BF7D10B93089B1A0464
:10398000079B42EA03620A9B1A43099B42EA03230C
:10399000190E41EA0262190201F47F010A431B0A6F
:1039A00003F47F431343049303E000B10B93042B10
:1039B000E4D0102203A9286815F0F4FC002806DBE7
:1039C0000A21286815F0A0FD38B90CB070BD286830
:1039D00015F042FD6FF04500F7E7286815F03CFD53
:1039E0006FF04700F1E76FF04100EEE77813020057
:1039F00030B587B00D4614461023019301AA02A9E1
:103A000015F0B4FB2860002805DB6CB1039B236034
:103A1000002007B030BDFFF764FF002814BF6FF02F
:103A200051006FF04900F4E70020F2E708B50068A4
:103A300015F0D4FE002800DB08BDFFF752FF98B94F
:103A40001AF0F2FB0368202B11D01AF0EDFB03688B
:103A5000682B0FD01AF0E8FB0368042B0CBF6FF043
:103A600051006FF04B00E7E76FF05100E4E76FF0B3
:103A70004F00E1E76FF04F00DEE708B5006815F092
:103A8000F5FF002800DB08BDFFF72BFF98B91AF0FF
:103A9000CBFB0368202B11D01AF0C6FB0368682B00
:103AA0000FD01AF0C1FB0368042B0CBF6FF053005A
:103AB0006FF04D00E7E76FF05300E4E76FF04F0061
:103AC000E1E76FF04F00DEE710B50446022115F084
:103AD000D3FF204615F0C0FC10BD2DE9F047ADF531
:103AE0001A7D05460C4616469846DDF88892DDF8A4
:103AF0008CA206A8FFF772F95246494606A8FFF7BE
:103B0000B5FD0822294606A8FFF7B0FD02A906A8C0
:103B1000FFF7FCFD102C36D90DF1F00C02AF97E841
:103B20000F008CE80F0006A8FFF758F9102239465D
:103B300006A8FFF79BFD5246494606A8FFF796FDEB
:103B40000822294606A8FFF791FD394606A8FFF787
:103B5000DDFD1F2C94BFA4F11002102202A940A881
:103B60001AF0F8FDE2003CA944A8FCF7FDFC019620
:103B700000962B464246002144A8FCF731FD0DF586
:103B80001A7DBDE8F087224602A93CA81AF0E2FDA2
:103B9000E8E7002303604360836070472DE9F04746
:103BA00088B0002800F0D6800C4691461F46064695
:103BB00018461BF079FB8246002800F0CD8049466C
:103BC00038461BF071FB0546002800F0C78082458F
:103BD00080F0C68020461BF03AFB0AEB00081AF87A
:103BE00000300D2B08BF08F1010898F800300A2BAF
:103BF00040F0B88008F1010448461BF028FB2A1861
:103C00002B5C0D2B08BF013213780A2B08BF013241
:103C1000D21B129B1A6016227C4920461AF08CFD9A
:103C2000002863D198F817300D2B12BF08F1170444
:103C300008F1180498F818300A2B40F09580671C9A
:103C40000E22734938461AF077FD002840F08E8026
:103C50001622704938461AF06FFD70B116226E496F
:103C600038461AF069FD50B116226C4938461AF0F0
:103C700063FD00287CD1042702E0022700E003272F
:103C80000023039304930593069304F1160204F1B1
:103C900036086FF0150EAEEB040E0DF10C0C11E0B2
:103CA000A1F14100C0B2052817D8373913F0010F30
:103CB00008BF09015B081CF8030001430CF803105E
:103CC00042455FD00EEB020312F8011FA1F1300054
:103CD000C0B20928E4D83039E8E7A1F16100C0B2E8
:103CE000052847D85739E1E7383450E00027B9466E
:103CF00053E028461AF018FDA4F5885482E02846BF
:103D00001AF012FD464C7DE0119B0193109B00932D
:103D1000079B2A46102103A8FFF7DFFE63E0119BF3
:103D20000193109B0093079B2A46182103A8FFF7D5
:103D3000D4FE58E0119B0193109B0093079B2A46E9
:103D4000202103A8FFF7C9FE4DE028461AF0ECFC3D
:103D5000344C57E0344C55E0344C53E0334C51E094
:103D6000324C4FE0314C4DE0314C4BE0314C49E0AE
:103D7000304C47E0304C45E02D4C43E02F4C41E0C7
:103D80002F4C3FE094F837300D2BADD037342378EB
:103D90000A2BF1D101344FF0010900200790A5EB67
:103DA00004084346224607A9FCF77AFD10F12C0FC0
:103DB000E4D007981AF0B0FC05460028E0D043464E
:103DC000224607A9FCF76CFD0446002891D1B9F101
:103DD000000F14D0109B002B91D0022F94D0032FF2
:103DE0009DD0042FA6D02B78302BAED16B78822BB0
:103DF000ABD12B79022BA8D16B79012BA5D13560E2
:103E0000079B7360204608B0BDE8F087841302006A
:103E10009C130200AC130200C4130200DC13020066
:103E200000EDFFFF80ECFFFF80EBFFFF80EFFFFF67
:103E300000EFFFFF80EDFFFF00EEFFFFD4EEFFFF7E
:103E400080EEFFFF10B50446006808B11AF06CFC64
:103E5000A06808B11AF068FC002323606360A360C7
:103E600010BD70B504460E461546942200211AF086
:103E700099FCC4F88C60C4F8905070BD38B50369E3
:103E80002BB30446C26922B31B6813F0010F22D082
:103E9000136813F0010F20D000F108052846FDF744
:103EA0005DFB7F281BD92846FDF758FBB0F5805FE6
:103EB00017D814342046FDF751FB012813D92046AA
:103EC000FDF74CFB4028094898BF002038BD074843
:103ED000FCE70648FAE70548F8E70448F6E7034830
:103EE000F4E70248F2E70148F0E700BF00BEFFFF39
:103EF0002DE9F043A9B00446FFF7C0FF05460028AE
:103F000068D1636B002B00F04A81236C002B00F01A
:103F10004881A36A002B00F0468125A8FDF768FAC6
:103F200022A8FDF765FA1FA8FDF762FA1CA8FDF7A5
:103F30005FFA19A8FDF75CFA16A8FDF759FA13A85D
:103F4000FDF756FA10A8FDF753FA0DA8FDF750FA41
:103F50000AA8FDF74DFA07A8FDF74AFA04A8FDF7ED
:103F600047FA01A8FDF744FA04F12C0604F13807DA
:103F70003A46314625A8FDF74DFE054670B325A803
:103F8000FDF73DFA22A8FDF73AFA1FA8FDF737FA28
:103F90001CA8FDF734FA19A8FDF731FA16A8FDF7A9
:103FA0002EFA13A8FDF72BFA10A8FDF728FA0DA892
:103FB000FDF725FA0AA8FDF722FA07A8FDF71FFA70
:103FC00004A8FDF71CFA01A8FDF719FA15F5844FAE
:103FD00040F0E280284629B0BDE8F08304F12009D2
:103FE00004F114084246494622A8FDF713FE05468F
:103FF0000028C4D1012231461FA8FDF7F4FD054673
:104000000028BCD1012239461CA8FDF7ECFD05466D
:104010000028B4D11CAA1FA919A8FDF7FBFD05466D
:104020000028ACD119AA414613A8FEF781FB05462A
:104030000028A4D11CAA1FA910A8FEF779FB0546E9
:1040400000289CD110AB19AA0AA90DA8FDF7EFFE14
:104050000546002893D10DAA22A916A8FEF7E5F877
:10406000054600288BD11FAA494607A8FEF7DDF8B0
:104070000546002883D11CAA494604A8FEF7D5F8B6
:10408000054600287FF47BAF3246394601A8FEF78B
:1040900006FC054600287FF472AF04F1080125A84C
:1040A000FDF732FC40B325A8FDF7A9F922A8FDF7DA
:1040B000A6F91FA8FDF7A3F91CA8FDF7A0F919A8F8
:1040C000FDF79DF916A8FDF79AF913A8FDF797F9E2
:1040D00010A8FDF794F90DA8FDF791F90AA8FDF7CE
:1040E0008EF907A8FDF78BF904A8FDF788F901A858
:1040F000FDF785F92D4D6DE704F1440107A8FDF7A3
:1041000003FC0028CFD104F1500104A8FDF7FCFB0B
:104110000028C8D104F15C0101A8FDF7F5FB0028D7
:10412000C1D100210AA8FDF747FC0028BBD101211D
:1041300016A8FDF741FC0028B5D1012113A8FDF711
:104140003BFC05460028AED125A8FDF758F922A86A
:10415000FDF755F91FA8FDF752F91CA8FDF74FF917
:1041600019A8FDF74CF916A8FDF749F913A8FDF7B2
:1041700046F910A8FDF743F90DA8FDF740F90AA884
:10418000FDF73DF907A8FDF73AF904A8FDF737F95F
:1041900001A8FDF734F91DE7A5F584451AE7034D9D
:1041A00018E7024D16E7014D14E700BF00BEFFFF00
:1041B000F0B587B004460D46164603A8FDF718F97A
:1041C0006268294603A8FDF7EDF9054628B103A862
:1041D000FDF715F9A5F5854520E004F10805294608
:1041E00003A8FDF791FB00281BDA676804F1680358
:1041F00000932B4604F1140203A90846FEF74AF87F
:1042000005460028E3D13A46314603A8FDF700FAF7
:10421000054603A8FDF7F3F8002DDBD1284607B0CB
:10422000F0BD03A8FDF7EBF8004DF7E780BFFFFFF7
:104230002DE9F0418CB004460D46164609A8FDF75D
:10424000D7F806A8FDF7D4F803A8FDF7D1F86268FF
:10425000294609A8FDF7A6F9054658B109A8FDF7B2
:10426000CEF806A8FDF7CBF803A8FDF7C8F8A5F52A
:1042700086455EE004F1080109A8FDF745FB00282A
:104280005BDA04F12C0704F1740300933B4604F15C
:10429000440209A906A8FDF7FDFF05460028DDD167
:1042A00004F1380804F180030093434604F15002FE
:1042B00009A903A8FDF7EEFF05460028CED103AA01
:1042C00006A909A8FDF750FC05460028C6D104F14F
:1042D0005C0209A906A8FDF79DFC05460028BDD192
:1042E0003A4606A909A8FDF7A0FF05460028B5D162
:1042F000424609A906A8FDF78DFC05460028ADD168
:1043000006AA03A909A8FDF709FC05460028A5D1BE
:104310006268314609A8FDF77BF9054609A8FDF753
:104320006EF806A8FDF76BF803A8FDF768F8002DF6
:104330009DD128460CB0BDE8F08109A8FDF75FF8D3
:10434000004DF6E780BFFFFF2DE9F041ADF5007DA0
:104350000C461946D0F88C30002B7ED117464668A3
:10436000A6F11003B3F5F87F79D8002C52D16A4634
:10437000FFF71EFF0546002D47D19DF800E0BEFA6D
:104380008EFE4FEA5E1E9DF80130022B7DD0012C7F
:1043900047D0012B75D19DF80220FF2A4ED180AB6A
:1043A00003EB060CACF2012C0DF102039C453CD949
:1043B0000DF1030380AAC2F5FF78194608EB030448
:1043C0001A780133FF2A3CD16145F6D180AB3344E2
:1043D000A3F201238B423ED9AE460A4612F8010BE6
:1043E000002818BF01349A42F8D304F4801444EA38
:1043F0000E040131ACB36A468A1AB21A879B9A42FC
:1044000031D83A6086981AF0A5F928460DF5007D56
:10441000BDE8F0816A46FFF70BFF0546ABE7A6460D
:10442000B9E7AE46B7E7A646B5E7AE46194600245B
:10443000DBE72C460DF10202002356E00DF10201EC
:104440000024002AC2D180AB3344A3F201238B4263
:10445000C3D8AE46C9E7AE46C7E7274DD5E7264DD8
:10446000D3E7264DD1E7264DCFE70DF10202002319
:1044700080A901EB060CACF2012C94452DD82C46FA
:1044800033E0002CCFD0744600E09CBB022BC6D199
:104490009DF80230002BE8D080AB03EB060EAEF2A5
:1044A000012E0DF102039E45C3D90DF1030080AB2F
:1044B000C3F5FF78024608EB0003013011780029AC
:1044C000D6D07245F6D180A901EB060CACF2012CD6
:1044D000624528BF2C4608D22C46114611F8010B24
:1044E000002818BF01336145F8D303F480131C433F
:1044F000511C7FE77446CBE780BFFFFF00BFFFFF83
:1045000000BCFFFF10B582B0D0F88C403CB9059CD0
:104510000194049C0094FFF717FF02B010BD0148FE
:10452000FBE700BF00BFFFFF2DE9F04F83B0019311
:10453000DDF83080DDF83490D0F88C30002B40F07E
:10454000CC8105468A46144643680E2C00F2C7818A
:10455000DFE814F00F00C5013F003F003F004200BC
:10456000C501C501C501C501C50148004B004E008C
:104570004500019A9E1A033E072E40F2B2819E42E8
:1045800000F2B1814FF0000B4F4607F802BB012348
:1045900089F801303246FF2138461AF003F907EB5B
:1045A000060C0CF1010E07F806B00E2C00F29D81EE
:1045B000DFE814F021009B012700480069008A0011
:1045C0009B019B019B019B019B01E70025015E0173
:1045D000AD00A3F12506CFE7A3F12606CCE7A3F1B2
:1045E0003206C9E7A3F13606C6E7A3F14606C3E7DC
:1045F000A3F15606C0E7019A414670461AF0AAF8A0
:104600002BE1BB4C0FCCCCF80100CEF80410CEF857
:104610000820CEF80C302388AEF81030D8F800000F
:10462000D8F80410D8F80820D8F80C30CCF81300CB
:10463000CCF81710CCF81B20CCF81F3002238CF8D4
:104640000E300AE1AA4C0FCCCCF80100CEF80410D1
:10465000CEF80820CEF80C302388AEF81030D8F809
:104660000000D8F80410D8F80820D8F80C30CCF89E
:104670001300CCF81710CCF81B20CCF81F30042303
:104680008CF80E30E9E09A4C0FCCCCF80100CEF853
:104690000410CEF80820CEF80C302388AEF8103085
:1046A000D8F80000D8F80410D8F80820D8F80C3052
:1046B000CCF81300CCF81710CCF81B20CCF81F3026
:1046C00005238CF80E30C8E08A4B07CBCCF80100EC
:1046D000CEF80410CEF808201A889B78AEF80C208B
:1046E0008EF80E30D8F80030D8F80400D8F808104A
:1046F000D8F80C20CCF81030CCF81400CCF81810F6
:10470000CCF81C20D8F81030CCF82030A5E07A4C3A
:104710000FCCCCF80100CEF80410CEF80820CEF86B
:104720000C302288A378AEF810208EF81230D8F81A
:104730000010D8F80420D8F80830D8F80C00CCF8CD
:104740001410CCF81820CCF81C30CCF82000D8F885
:104750001010D8F81420D8F81830CCF82410CCF861
:104760002820CCF82C309CF802301C338CF8023016
:1047700004238CF80F309CF813301C338CF8133062
:104780006BE05D4C0FCCCCF80100CEF80410CEF8F5
:104790000820CEF80C302288A378AEF810208EF8CE
:1047A0001230D8F80000D8F80410D8F80820D8F84B
:1047B0000C30CCF81400CCF81810CCF81C20CCF835
:1047C0002030D8F81000D8F81410D8F81820D8F8ED
:1047D0001C30CCF82400CCF82810CCF82C20CCF8D5
:1047E00030309CF8023020338CF8023001238CF8F2
:1047F0000F309CF8133020338CF813302DE03E4CF2
:104800000FCCCCF80100CEF80410CEF80820CEF87A
:104810000C302288A378AEF810208EF81230434670
:104820000CF1140208F130081E685C689868D968B9
:10483000166054609060D160103310324345F3D15C
:104840009CF8023030338CF8023002238CF80F30A1
:104850009CF8133030338CF81330BAF1000F36D196
:104860004A4649462846FFF7A3FC03B0BDE8F08F4F
:10487000214C0FCCCCF80100CEF80410CEF8082063
:10488000CEF80C302288A378AEF810208EF81230C3
:1048900043460CF1140208F140081E685C689868F1
:1048A000D968166054609060D1601033103243456F
:1048B000F3D19CF8023040338CF8023003238CF89B
:1048C0000F309CF8133040338CF81330C5E74A465C
:1048D00049462846FFF7ACFCC7E70848C5E7074844
:1048E000C3E70648C1E70548BFE70448BDE700BF86
:1048F00004140200181402002814020080BFFFFFF5
:104900001946D0F88C3063B900B583B0079B01938A
:10491000069B0093059B049AFFF706FE03B05DF823
:1049200004FB0148704700BF00BFFFFF2DE9F043C3
:10493000ADF5017D1E46D0F88C30002B40F0E680AE
:1049400015464768A7F11003B3F5F87F00F2E08041
:1049500039BB6A468999FFF72BFC002840F0E180BB
:104960009DF80030002B40F0D5809DF80130012BE0
:1049700040F0D2809DF80210C1B180ABD819A0F2EE
:1049800001200DF10203984240F2C8801C46FF2925
:1049900040F0C68014F8011F51B18442F7D16A4833
:1049A000BFE06A468999FFF743FCD6E70DF10204A0
:1049B00004F101086B46A8EB0303FF1A212F11D065
:1049C000222F34D0232F59D02F2F6BD0332F00F02C
:1049D0008A80432F40F08F80E37B022B04D10C2D83
:1049E00002D164E0052D0FD0B74240F0A880002D21
:1049F00040F0A78032468899404619F09DFE002875
:104A0000524B18BF18468CE00D225149404619F010
:104A100093FE002840F089801422889904F10E004A
:104A200019F08AFE0028494B18BF184679E094F81F
:104A30000E900023A37312224649404619F07CFED3
:104A4000002874D1B9F1020F08D0B9F1040F12D0C7
:104A5000B9F1050FC8D1042DC6D101E0022DC3D193
:104A60001022889904F1130019F066FE0028374BD4
:104A700018BF184655E0032DB6D1F1E7052DB3D187
:104A80000F223549404619F057FE002851D1142213
:104A9000889904F1100019F04FFE00282B4B18BF25
:104AA00018463EE0E37B042B9ED10E2D9CD1A578C9
:104AB000113DEDB21123A3700023E373E37CAB42FD
:104AC00039D112222549404619F036FE002834D14A
:104AD0002A46889904F1140019F02EFE00281B4B79
:104AE00018BF18461DE0E37B012B7FF47DAF0B2D33
:104AF0007FF47AAFDBE7532F7FF476AFE37B032BB2
:104B00007FF472AF0D2D7FF46FAFD0E7144808E04B
:104B1000134806E00C4804E00B4802E00A4800E0B5
:104B200009480DF5017DBDE8F0830848F9E707481D
:104B3000F7E70648F5E70548F3E70448F1E70248D8
:104B4000EFE70148EDE700BF00BFFFFF80BCFFFFBC
:104B5000F4130200041402001814020028140200C6
:104B600080BFFFFF10B582B0D0F88C403CB9059CE7
:104B70000194049C0094FFF7D9FE02B010BD0148D7
:104B8000FBE700BF00BFFFFF10B504468030FCF715
:104B900036FC04F17400FCF732FC04F16800FCF709
:104BA0002EFC04F15C00FCF72AFC04F15000FCF739
:104BB00026FC04F14400FCF722FC04F13800FCF769
:104BC0001EFC04F12C00FCF71AFC04F12000FCF799
:104BD00016FC04F11400FCF712FC04F10800FCF7C9
:104BE0000EFC10BD002303604360094B836003F19A
:104BF0008833C36003F12943A3F59613A3F68B63AF
:104C00000361A3F188334361024B8361704700BFA6
:104C100001234567F0E1D2C32DE9F04F9BB08246F6
:104C20000B784D782D0445EA0365CB781D438B78CE
:104C300045EA03230C930B794D792D0445EA03656E
:104C4000CB791D438B7945EA03220D920B7A4A7A80
:104C5000120442EA0362CB7A1A438B7A42EA0322B5
:104C60000B7B91F80D904FEA094949EA0369CB7B28
:104C700049EA03098B7B49EA0329087C4B7C1B0426
:104C800043EA0063C87C0343887C43EA002308931B
:104C90000B7D487D000440EA0360CB7D18438B7D8B
:104CA00040EA032409940B7E91F819E04FEA0E4E76
:104CB0004EEA036ECB7E4EEA030E8B7E4EEA032550
:104CC0000A950B7F4D7F2D0445EA0365CB7F1D437D
:104CD0008B7F45EA03270F9791F8200091F8213048
:104CE0001B0443EA006391F82300034391F8220078
:104CF00043EA002CCDF808C091F8243091F825C083
:104D00004FEA0C4C4CEA036C91F827304CEA030C48
:104D100091F826304CEA0324039491F8283091F856
:104D20002960360446EA036691F82B301E4391F859
:104D30002A3046EA0325049591F82C6091F82D302D
:104D40001B0443EA066391F82F601E4391F82E304E
:104D500046EA032CCDF814C091F8307091F8313048
:104D60001B0443EA076391F833701F4391F8323014
:104D700047EA032CCDF818C091F8348091F835300B
:104D80001B0443EA086391F8378043EA080891F866
:104D9000363048EA032CCDF800C091F8384091F83D
:104DA00039301B0443EA046391F83B401C4391F8FB
:104DB0003AE044EA0E2CCDF804C091F83C4091F85A
:104DC0003D301B0443EA046391F83F401C4391F8D3
:104DD0003E5044EA052CCDF81CC0DAF8080006461F
:104DE000DAF80C40DAF81070DAF814000346CDF85F
:104DF00064A0DAF81800169087EA03052540159399
:104E00005D40DE4B169919440B9601EBF6610D449B
:104E10000C990D44A64687EAB4010B9E31401497C5
:104E200079401598184401440D98014401EBF5614F
:104E30004FEAB60080EAB4072F4087EAB407149C13
:104E40001C441444274407EBF16780EAB5040C4086
:104E50004440CDF860E003EBBE064E44344404EB1E
:104E6000F7644FEAB10181EAB50C0CEA070C8CEA51
:104E7000B50C1844089E304484440CEBF46C81EA71
:104E8000B70020404840099E1E4406EBB505284463
:104E900000EBFC604FEAB40484EAB70505EA0C05B0
:104EA00085EAB7050A9E1E4431440D4405EBF065C2
:104EB00084EABC06064066400F99194401EBB70727
:104EC0003E4406EBF5664FEAB00080EABC0129409B
:104ED00081EABC01029F1F443C44214401EBF6617E
:104EE00080EAB50434404440039F1F4407EBBC0CE8
:104EF000644404EBF1644FEAB60686EAB50A0AEAAE
:104F0000010A8AEAB50A049F1F44384482440AEB26
:104F1000F46A86EAB10808EA040888EA06080598EF
:104F2000184400EBB505A84408EBFA684FEAB4044E
:104F300084EAB10707EA0A0787EAB107069DE8187D
:104F40000644374407EBF86784EABA0E0EEA080E07
:104F50008EEA040E009EF01800EBB1018E440EEBB9
:104F6000F76E4FEAB80888EABA0B0BEA070B8BEA30
:104F7000BA0B019DE9180C44A3440BEBFE6B88EAC5
:104F8000B70000EA0E0080EA0800079CE11801EB78
:104F9000BA0A504400EBFB604FEABE0E0C9981EA5E
:104FA000020502994D4085EA060C654666468EEA82
:104FB000B70C0CEA0B0C8CEAB70C03EBF5718844C8
:104FC000C4440CEBF06C0D9D85EA090503994D4036
:104FD000019C85EA04088EEABB05054085EA0E05BA
:104FE000CDF8348003EBF87101EBB7073D4405EBD6
:104FF000FC654FEAB000089C6240049F7A40079F1E
:1050000082EA07044FEAF472109280EABB0101EAD7
:105010000C0181EABB01129403EBF474A6447144C1
:1050200001EBF561099A89EA0209059A89EA020900
:105030000C9689EAF6794FEAF97ECDF844E080EAE9
:10504000BC042C40444003EBF97303EBBB031C444A
:1050500004EBF1644FEAB505089B9E460A9B8EEA75
:105060000303069A534083EAF8731A4685EABC069E
:105070004E40434B0E9203EBF2773844064406EB66
:10508000F46609980F9A5040009F7840129F80EA7A
:10509000F77085EAB10A8AEA040A089003EBF07710
:1050A00007EBBC0CE2440AEBF66A4FEAB4040A9838
:1050B000844602988CEA000E01988EEA000E8EEA71
:1050C000F97E4FEAFE7CCDF824C084EAB107774030
:1050D00003EBFE7C65442F4407EBFA67039D5540C4
:1050E000079A55400E9A85EAF2724FEAF2750A95D0
:1050F00084EAB60888EA0A08179203EBF27C0CEB04
:10510000B101884408EBF7684FEABA0A029DAC4641
:10511000049D8CEA05010C9D81EAF571089A81EAEB
:10512000F2718AEAB60C8CEA070C03EBF17B5C4463
:10513000644404EBF864039DAC46059D8CEA050CC1
:105140000D9A8CEAF27C8CEAFE7C8AEAB70B8BEA39
:10515000080BCDF808C003EBFC7C0CEBB606B3449F
:105160000BEBF46B4FEAB808049A069E5640129D6A
:1051700086EAF572179E82EAF67203E09979825AFE
:10518000A1EBD96E4FEAF2760F9688EAB70C8CEA5B
:10519000040C03EBF276B244D4440CEBFB6C059D9B
:1051A000009E6E4086EAF97989EAF1794FEAF97A48
:1051B000CDF848A088EAB40686EA0B0603EBF97A34
:1051C0000AEBB7073E4406EBFC664FEABB0B069FB3
:1051D00047400E9D87EAF577029D87EAF57A8BEACC
:1051E000B40787EA0C07CDF80CA003EBFA7AD04499
:1051F000474407EBF66700988046079888EA00085E
:10520000089D88EAF57888EAF27845468BEABC087A
:1052100088EA0608009503EBF57A0AEBB404A0448B
:1052200008EBF7684FEAB606019C0C9D84EAF5741A
:1052300084EAFE7E8EEAF97E4FEAFE7ACDF84CA033
:1052400086EABC0A8AEA070A03EBFE74A344DA443E
:105250000AEBF86A83460D988BEAF074179D84EA8E
:10526000F574039D84EAF57425464FEAF4740D94B1
:1052700086EAB70B8BEA080B069503EBF57505EB91
:10528000BC0CE3440BEBFA6B4FEAB808109C0C9D86
:1052900084EAF57585EAF175009C85EAF47C64463C
:1052A00088EAB70C8CEA0A0C03EBF4752E44B4447C
:1052B0000CEBFB6C119E86EAF075029885EAF0759E
:1052C00085EAFE7688EABA0585EA0B05019603EBC6
:1052D000F67606EBB7073D4405EBFC654FEABB0BE2
:1052E000109F0E9887EAF07686EAF276069A86EAAA
:1052F000F2764FEAF6720C928BEABA0787EA0C074D
:1053000003EBF6729044474407EBF567119A904619
:10531000089A88EAF27282EAF979179489EAF479AC
:105320004FEAF978CDF838808BEABC026A4003EB8B
:10533000F97808EBBA0A524402EBF7624FEAB50576
:10534000099C84EAF078039888EAF078019C88EA5E
:10535000F47885EABC0A8AEA070ACDF8108003EBE4
:10536000F878C344DA440AEBF26A0A9C089884EAA3
:10537000F070009C80EAF47080EAF678444685EA92
:10538000B70888EA0208059403EBF47000EBBC0C44
:10539000E04408EBFA684FEAB202099C84EAF17033
:1053A00080EAFE7E8EEAF97E4FEAFE7CCDF840C0B0
:1053B00082EAB70C8CEA0A0C03EBFE700544AC449D
:1053C0000CEBF86C0A9DAB46029D8BEAF57B069DC3
:1053D0008BEAF574049D84EAF5744FEAF4750A9536
:1053E00082EABA0585EA080503EBF47303EBB70319
:1053F0001D4405EBFC650F9B83EAF171179B81EA65
:10540000F371059B81EAF37BE24BCDF818B003EB17
:10541000FB710A4402EBF5614CEAB80202EABA02F7
:105420000CEAB80002430A44129F029887EAF0711E
:10543000019F81EAF77181EAFE7B45EABC0707EA32
:10544000B80105EABC070F43CDF81CB003EBFB71B4
:1054500001EBBA0A574407EBF2670F99039881EA08
:10546000F07080EAF67080EAF4714FEAF1760F96F8
:10547000099103EBF17606EBB80808EBF76642EA10
:10548000B50808EABC0802EAB50148EA0108B044D8
:10549000129E00998B4686EAF17181EAF979069E9F
:1054A00089EAF6794FEAF97ACDF844A047EAB206DC
:1054B00006EAB50107EAB2060E4303EBF97101EB08
:1054C000BC0C664406EBF86613998C4603998CEA8B
:1054D000F171049881EAF071079881EAF07CCDF8C7
:1054E00020C003EBFC7A0AEBB50505EBF66548EA4C
:1054F000B70A0AEAB20A08EAB7014AEA010AAA4464
:105500000D9D85EAFB71059881EAF071099D81EA9C
:10551000F57C654646EAB80C0CEAB70106EAB80C19
:1055200041EA0C0C009503EBF57101EBB2029444D7
:105530000CEBFA6C139A179D82EAF57282EAFE7EF2
:105540008EEAF97E4FEAFE7BCDF848B003EBFE71A0
:1055500001EBB70707EBFC614AEAB60707EAB807B1
:105560000AEAB60217430F440D9A9346019A8BEA52
:10557000F27B8BEAF47B089C8BEAF47B4FEAFB74AA
:105580000D944CEABA0101EAB6020CEABA011143E1
:1055900003EBFB7202EBB808414401EBF7610C9C92
:1055A00084EAF575069C85EAF475009A85EAF27836
:1055B000CDF8088003EBF87202EBB60606EBF16259
:1055C00047EABC0606EABA0607EABC0846EA080645
:1055D00016440E9D019A85EAF275079A85EAF275DE
:1055E00085EAFE7841EAB70505EABC0201EAB7059B
:1055F0001543CDF8048003EBF87202EBBA0A554468
:1056000005EBF6650C9A9046049A88EAF27A099AB4
:105610008AEAF27A8AEAFB7A4FEAFA78CDF83080A1
:1056200003EBFA7404EBBC0C0CEBF56C46EAB1042A
:1056300004EAB70406EAB102144364440E9A82EA0B
:10564000F07282EAF979029889EAF0794FEAF97CF6
:10565000CDF838C045EAB60202EAB10005EAB60262
:10566000024303EBF97000EBB7073A4402EBF46234
:10567000109F049887EAF078089888EAF078019FEC
:1056800088EAF77CCDF824C003EBFC7000EBB10195
:1056900001EBF26144EAB50000EAB60004EAB5079E
:1056A000384308440A9F059987EAF171009F81EA0F
:1056B000F77181EAFA7C42EAB40808EAB50102EA25
:1056C000B40841EA0808CDF80CC003EBFC7101EB0B
:1056D000B606B04408EBF06810998C4606998CEA3F
:1056E000F17181EAFE7E8EEAF97E4FEAFE7CCDF80A
:1056F00040C003EBFE7101EBB50505EBF86140EA34
:10570000B20505EAB40500EAB20635430D440A9E27
:10571000B446079E8CEAF67787EAFB7B09998BEA09
:10572000F17B4FEAFB7CCDF828C048EAB00C0CEACC
:10573000B20108EAB00C41EA0C0C03EBFB7101EB7F
:10574000B404A4440CEBF56C0F9C2746069C87EA36
:10575000F477029C87EAF477039C87EAF47104915A
:1057600003EBF17101EBB20202EBFC6145EAB80216
:1057700002EAB00205EAB80422430A44119C84EA12
:10578000F676019986EAF17686EAFE764CEAB50469
:1057900002E000BFDCBC1B8F04EAB8010CEAB504D0
:1057A0000C43059603EBF67101EBB000044404EBE7
:1057B000F2640F9F3E46089F86EAF77080EAFA700F
:1057C00080EAFB704FEAF076089603EBF07606EB82
:1057D000B80808EBF46642EABC0808EAB50802EA31
:1057E000BC0148EA0108B044119E009986EAF171B3
:1057F00081EAF979049E89EAF6794FEAF97ACDF8D7
:105800003CA044EAB20101EABC0104EAB2060E433C
:1058100003EBF97303EBB5031E4406EBF8664FEA9E
:10582000B403129D85EAF775099F85EAF775059F10
:1058300085EAF77A544683EAB20A8AEA080ADA4D18
:10584000069405EBF47101EBBC0CE2440AEBF66A3A
:105850000D9F009C87EAF471039C81EAF47181EA50
:10586000F07C83EAB8047440CDF800C005EBFC710D
:1058700001EBB202144404EBFA644FEAB606129A42
:105880009446029A8CEAF27282EAFE7E8EEAF97EF1
:105890004FEAFE7CCDF844C086EAB80C8CEA0A0CCC
:1058A00005EBFE7213449C440CEBF46C0D9B1F46FD
:1058B000019B87EAF37787EAFB77069B87EAF37712
:1058C0004FEAF7730D9386EABA01614005EBF7756D
:1058D00005EBB805294401EBFC614FEAB4040C9DCB
:1058E000029A85EAF273049D83EAF573009A83EACB
:1058F000F278454684EABA0888EA0C08AA4B029571
:1059000003EBF5721644B04408EBF1680E9A934627
:10591000019A8BEAF276059A86EAF27686EAFE7BAF
:1059200084EABC064E40CDF81CB003EBFB7202EBE0
:10593000BA0A564406EBF8664FEAB1010C9DAA4636
:10594000099D8AEAF57A8AEAF07A8AEAF77A81EAA0
:10595000BC0B8BEA080B03EBFA721444A3440BEB69
:10596000F66B0E9C039A84EAF27282EAF979029C41
:1059700089EAF47981EAB802724003EBF97000EB2E
:10598000BC0C624402EBFB624FEAB606109C84EA50
:10599000F574069884EAF074079D84EAF57486EA43
:1059A000B80C8CEA0B0C03EBF47001448C440CEB48
:1059B000F26C0A99039D81EAF571009D81EAF57107
:1059C00081EAFA7186EABB05554003EBF17000EB02
:1059D000B808454405EBFC654FEAB20210988046D2
:1059E000049888EAF07080EAFE7E8EEAF97E82EA08
:1059F000BB0888EA0C08CDF80CE003EBFE70064407
:105A0000B04408EBF5680A9E059886EAF07080EAD3
:105A1000F77787EAF47E82EABC006840CDF824E09C
:105A200003EBFE7606EBBB0B584400EBF8604FEA45
:105A3000B5050195089E049F86EAF777029D87EADF
:105A4000F57787EAF177019D85EABC0E8EEA080EAC
:105A500003EBF776324496440EEBF06E0F9A9346C2
:105A6000059A8BEAF276079A86EAF276039A86EA34
:105A7000F27685EAB802424003EBF67B0BEBBC0CF6
:105A8000624402EBFE624FEAB000089DAC46069D00
:105A90008CEAF57C8CEAFA7A099D8AEAF57A80EA42
:105AA000B80C8CEA0E0C03EBFA7B019D5D44AC4410
:105AB0000CEBF26C0F9DAB46009D8BEAF57585EA09
:105AC000F97989EAF77780EABE0B8BEA020B03EBE0
:105AD000F77505EBB808C3440BEBFC6B4FEAB20259
